:100000000C9434000C9446000C9446000C9446006A
:100010000C9446000C9446000C9446000C94460048
:100020000C9446000C9446000C9446000C94460038
:100030000C9446000C9446000C9446000C94460028
:100040000C9446000C9446000C948E000C944600D0
:100050000C9446000C9446000C9446000C94460008
:100060000C9446000C94460011241FBECFEFD8E03C
:10007000DEBFCDBF21E0A0E0B1E001C01D92A13004
:10008000B207E1F70E9448000C94AF000C94000006
:10009000CF93DF93CDB7DEB784E290E0FC012081FF
:1000A00084E290E02062FC01208385EC90E0FC017A
:1000B000108284EC90E027E6FC01208381EC90E044
:1000C00028E1FC01208381EC90E0FC01208181EC9F
:1000D00090E02068FC01208382EC90E026E0FC01A7
:1000E0002083789480910001813351F485E290E07F
:1000F000FC01208185E290E02062FC012083F2CFA8
:1001000080910001803371F785E290E0FC0120814D
:1001100085E290E02F7DFC012083E4CF1F920F92B7
:100120000FB60F9211248F939F93EF93FF93CF936A
:10013000DF93CDB7DEB7F89486EC90E0FC018081C8
:100140008093000178940000DF91CF91FF91EF91AF
:100150009F918F910F900FBE0F901F901895F8945C
:02016000FFCFCF
:00000001FF
