:100000000C9434000C9451000C9451000C94510049
:100010000C9451000C9451000C9451000C9451001C
:100020000C9451000C9451000C9451000C9451000C
:100030000C9451000C9451000C9451000C945100FC
:100040000C9451000C9451000C9451000C945100EC
:100050000C9451000C9451000C9451000C945100DC
:100060000C9451000C94510011241FBECFEFD8E026
:10007000DEBFCDBF11E0A0E0B1E0E0E8FEE002C0ED
:1000800005900D92AA30B107D9F721E0AAE0B1E0BE
:1000900001C01D92AE30B207E1F70E9453000C94EC
:1000A0003E070C940000CF93DF9300D000D000D027
:1000B000CDB7DEB782E00E94AF019E838D8384E2DC
:1000C00090E0FC01108284E290E0FC018081882FA6
:1000D00090E065E070E00E940D019C0184E290E0F8
:1000E000FC01208385E290E0FC01108285E290E033
:1000F000FC018081882F90E064E070E00E940D0197
:100100009C0185E290E0FC01208383E290E0FC0109
:100110008081882F90E064E070E00E948501892B47
:1001200009F053C019822CC085E290E0FC01808167
:10013000882F90E065E070E00E940D019C0185E24F
:1001400090E0FC0120831A8208C08D819E816A8123
:100150000E9428028A818F5F8A838A818430A8F373
:100160001B8208C08D819E816B810E9418048B8147
:100170008F5F8B838B818430A8F389818F5F898324
:100180008981833088F21C821CC08D819E8122E08F
:1001900030E041E050E060E070E00E94EA028D81D2
:1001A0009E8160E00E9418048D819E8161E00E9422
:1001B00018048D819E8162E00E9418048C818F5FFB
:1001C0008C838C81833008F3A0CF85E290E0FC0122
:1001D0008081882F90E065E070E00E942C019C01F6
:1001E00085E290E0FC01208390CFCF93DF9300D095
:1001F000CDB7DEB789836A838981882F90E02A8111
:10020000222F30E002C0959587952A95E2F78170FC
:100210000F900F90DF91CF910895CF93DF9300D08F
:10022000CDB7DEB789836A838A81282F30E081E0E9
:1002300090E0A0E0B0E004C0880F991FAA1FBB1F88
:100240002A95D2F7982F8981892B898389810F90EC
:100250000F90DF91CF910895CF93DF9300D0CDB76A
:10026000DEB789836A838A81282F30E081E090E0BD
:10027000A0E0B0E004C0880F991FAA1FBB1F2A95F9
:10028000D2F7809599818923898389810F900F9076
:10029000DF91CF910895CF93DF9300D0CDB7DEB734
:1002A00089836A838A81282F30E081E090E0A0E092
:1002B000B0E004C0880F991FAA1FBB1F2A95D2F770
:1002C000982F89818927898389810F900F90DF91E9
:1002D000CF910895CF93DF9300D00F92CDB7DEB7C3
:1002E00089836A834B838B81882329F06A81898182
:1002F0000E940D0104C06A8189810E942C010F9027
:100300000F900F90DF91CF910895CF93DF9300D09E
:10031000CDB7DEB789836A838981482F50E060E0DA
:1003200070E08A81282F30E081E090E0A0E0B0E02A
:1003300004C0880F991FAA1FBB1F2A95D2F78423D8
:100340009523A623B72321E0892B8A2B8B2B09F435
:1003500020E0822F0F900F90DF91CF910895CF93DF
:10036000DF9300D00F92CDB7DEB78B8385E090E0AE
:100370000E9416069A8389838B81843038F08981A4
:100380009A810E94AC061A82198205C089819A81DD
:100390006B810E94D30189819A810F900F900F90F9
:1003A000DF91CF9108950F931F93CF93DF9300D0E8
:1003B00000D00F92CDB7DEB79C838B836D838B818A
:1003C0009C812D81FC012083198214C08981282FF2
:1003D00030E08981882F90E020503F4FF901408123
:1003E0002B813C81820F931F0196FC014083898100
:1003F0008F5F898399818D81891740F71A8218C090
:100400008A81882F90E02B813C81820F931F019677
:10041000FC0120818AE290E0FC0180810AE210E088
:10042000622F0E940D01F80180838A818F5F8A8389
:100430009A818D81891720F7000000000F900F909E
:100440000F900F900F90DF91CF911F910F91089512
:100450000F931F93CF93DF93CDB7DEB7A5970FB65A
:10046000F894DEBF0FBECDBF988B8F87698B8989CB
:10047000843008F0A3C08989882F90E02F853889BF
:10048000820F931F0196DC012C918BE290E0FC011E
:1004900080810BE210E0622F0E940D01D8018C9345
:1004A00080E090E0AAEFB3E489839A83AB83BC83B6
:1004B00020E030E04AE755E469817A818B819C81B4
:1004C0000E9481056E8B7F8B888F998F8E899F8983
:1004D000A88DB98D8D839E83AF83B88720E030E0EF
:1004E00040E85FE36D817E818F8198850E94FB04E7
:1004F00088232CF481E090E09A87898754C020E01B
:100500003FEF4FE757E46D817E818F8198850E9490
:100510007C051816D4F520E030E040E251E4698112
:100520007A818B819C810E9481056A8F7B8F8C8F61
:100530009D8F8A8D9B8DAC8DBD8D8A8B9B8BAC8B5B
:10054000BD8B6A897B898C899D890E9400056E8F8D
:100550007F8F88A399A3AE8DBF8DBA87A98710C05E
:1005600080E991E09C878B878B859C850197F1F7CB
:100570009C878B87000089859A8501979A87898750
:1005800089859A85892B61F71AC06D817E818F815B
:1005900098850E9400056AA37BA38CA39DA3EAA172
:1005A000FBA1FA87E98789859A859E878D878D8546
:1005B0009E850197F1F79E878D8701C00000A59663
:1005C0000FB6F894DEBF0FBECDBFDF91CF911F9164
:1005D0000F9108950F931F93CF93DF93CDB7DEB79D
:1005E000A7970FB6F894DEBF0FBECDBF988B8F874D
:1005F000698B4A8B2B8B8989843008F00DC18989DE
:10060000882F90E02F853889820F931F0196DC0197
:100610002C918BE290E0FC0180810BE210E0622FD4
:100620000E940D01D8018C938A89882F90E02F8534
:100630003889820F931F0196FC0120818BE290E0A4
:10064000DC018C910BE210E0622F0E940D01F80199
:1006500080838B89882F90E02F853889820F931FA4
:100660000196DC012C918BE290E0FC0180810BE291
:1006700010E0622F0E940D01D8018C9380E090E081
:10068000A6E1B3E489839A83AB83BC8320E030E0A6
:100690004AE755E469817A818B819C810E948105BA
:1006A000688F798F8A8F9B8F888D998DAA8DBB8D4E
:1006B0008D839E83AF83B88720E030E040E85FE31E
:1006C0006D817E818F8198850E94FB0488232CF4A4
:1006D00081E090E09A87898754C020E03FEF4FE7A0
:1006E00057E46D817E818F8198850E947C05181664
:1006F000D4F520E030E040E251E469817A818B81D9
:100700009C810E9481056C8F7D8F8E8F9F8F8C8D39
:100710009D8DAE8DBF8D8C8B9D8BAE8BBF8B6C8971
:100720007D898E899F890E94000568A379A38AA389
:100730009BA3A8A1B9A1BA87A98710C080E991E0BD
:100740009C878B878B859C850197F1F79C878B878E
:10075000000089859A8501979A87898789859A8576
:10076000892B61F719C06D817E818F8198850E94E8
:1007700000056CA37DA38EA39FA3ECA1FDA1FA8726
:10078000E98789859A859E878D878D859E850197C6
:10079000F1F79E878D8700008989882F90E02F854B
:1007A0003889820F931F0196DC012C918BE290E037
:1007B000FC0180810BE210E0622F0E942C01D80125
:1007C0008C938A89882F90E02F853889820F931F18
:1007D0000196FC0120818BE290E0DC018C910BE220
:1007E00010E0622F0E942C01F80180838B89882FF2
:1007F00090E02F853889820F931F0196DC012C91A0
:100800008BE290E0FC0180810BE210E0622F0E94FD
:100810002C01D8018C9301C00000A7960FB6F89464
:10082000DEBF0FBECDBFDF91CF911F910F91089515
:100830000F931F93CF93DF93CDB7DEB7A5970FB676
:10084000F894DEBF0FBECDBF988B8F87698B8989E7
:10085000843008F0A3C08989882F90E02F853889DB
:10086000820F931F0196DC012C918BE290E0FC013A
:1008700080810BE210E0622F0E942C01D8018C9342
:1008800080E090E0AAEFB3E489839A83AB83BC83D2
:1008900020E030E04AE755E469817A818B819C81D0
:1008A0000E9481056E8B7F8B888F998F8E899F899F
:1008B000A88DB98D8D839E83AF83B88720E030E00B
:1008C00040E85FE36D817E818F8198850E94FB0403
:1008D00088232CF481E090E09A87898754C020E037
:1008E0003FEF4FE757E46D817E818F8198850E94AD
:1008F0007C051816D4F520E030E040E251E469812F
:100900007A818B819C810E9481056A8F7B8F8C8F7D
:100910009D8F8A8D9B8DAC8DBD8D8A8B9B8BAC8B77
:10092000BD8B6A897B898C899D890E9400056E8FA9
:100930007F8F88A399A3AE8DBF8DBA87A98710C07A
:1009400080E991E09C878B878B859C850197F1F7E7
:100950009C878B87000089859A8501979A8789876C
:1009600089859A85892B61F71AC06D817E818F8177
:1009700098850E9400056AA37BA38CA39DA3EAA18E
:10098000FBA1FA87E98789859A859E878D878D8562
:100990009E850197F1F79E878D8701C00000A5967F
:1009A0000FB6F894DEBF0FBECDBFDF91CF911F9180
:1009B0000F910895CF93DF9300D0CDB7DEB79A8320
:1009C000898389819A81FC0180810F900F90DF914A
:1009D000CF910895CF93DF9300D0CDB7DEB79A8340
:1009E000898389819A810E94AC0600000F900F9044
:1009F000DF91CF9108950E942F0508F481E00895BA
:100A00000E945B0588F09F5798F0B92F9927B7513E
:100A1000B0F0E1F0660F771F881F991F1AF0BA95A2
:100A2000C9F714C0B13091F00E947505B1E0089586
:100A30000C947505672F782F8827B85F39F0B93F78
:100A4000CCF3869577956795B395D9F73EF4909555
:100A50008095709561957F4F8F4F9F4F0895990FA7
:100A60000008550FAA0BE0E8FEEF16161706E80778
:100A7000F907C0F012161306E407F50798F0621B99
:100A8000730B840B950B39F40A2661F0232B242B6E
:100A9000252B21F408950A2609F4A140A6958FEF8D
:100AA000811D811D089557FD9058440F551F59F021
:100AB0005F3F71F04795880F97FB991F61F09F3F4B
:100AC00079F087950895121613061406551FF2CF74
:100AD0004695F1DF08C0161617061806991FF1CFC4
:100AE00086957105610508940895E894BB276627EB
:100AF0007727CB0197F908950E942F0508F48FEF0F
:100B000008950E9494050C9405060E94F70538F09C
:100B10000E94FE0520F0952311F00C94EE050C9434
:100B2000F40511240C9476050E94530570F3959FEB
:100B3000C1F3950F50E0551F629FF001729FBB27D4
:100B4000F00DB11D639FAA27F00DB11DAA1F649F70
:100B50006627B00DA11D661F829F2227B00DA11D23
:100B6000621F739FB00DA11D621F839FA00D611DA9
:100B7000221F749F3327A00D611D231F849F600DCA
:100B8000211D822F762F6A2F11249F5750409AF0F3
:100B9000F1F088234AF0EE0FFF1FBB1F661F771F7F
:100BA000881F91505040A9F79E3F510580F00C944A
:100BB000EE050C9476055F3FE4F3983ED4F38695FA
:100BC00077956795B795F795E7959F5FC1F7FE2BEA
:100BD000880F911D9695879597F9089597F99F67C6
:100BE00080E870E060E008959FEF80EC08950024B5
:100BF0000A941616170618060906089500240A9482
:100C000012161306140605060895092E0394000C07
:100C100011F4882352F0BB0F40F4BF2B11F460FF96
:100C200004C06F5F7F4F8F4F9F4F08950F931F93A7
:100C3000CF93DF939C01029710F422E030E0E09123
:100C40000A01F0910B0190E080E0B0E0A0E0309765
:100C500091F4009709F445C0821B930B84309105F1
:100C6000B8F58A819B816115710569F1FB01938358
:100C70008283FE0111C0408151810281138142179C
:100C80005307F0F04217530799F4109761F012964A
:100C90000C93129713961C933296CF01DF91CF914C
:100CA0001F910F91089500930A0110930B01F4CF47
:100CB000009719F04817590718F4CA01BD01EF0150
:100CC000DF01F801C4CF90930B0180930A01D1CFCB
:100CD000FE01E80FF91F21933193029799838883CE
:100CE000DCCF80910C0190910D01892B41F4809112
:100CF00006019091070190930D0180930C01809162
:100D0000040190910501009741F48DB79EB7409181
:100D1000080150910901841B950B40910C015091E1
:100D20000D014817590708F0B8CF841B950B82179F
:100D3000930708F4B2CFB9016E5F7F4F861797070C
:100D400008F4ABCF640F751F70930D0160930C0115
:100D5000FA0121933193A1CFCF93DF939C010097A8
:100D6000E9F0FC01329713821282C0910A01D091FE
:100D70000B01DE0190E080E02097A1F48081918159
:100D8000280F391F80910C0190910D018217930754
:100D900009F067C0F0930D01E0930C01DF91CF9152
:100DA0000895DA01AE17BF0708F041C012964D91C1
:100DB0005C911397CD014115510599F7DC0113960C
:100DC000FC93EE9312974D915D91A40FB51FEA1716
:100DD000FB0781F4208131812E5F3F4F240F351FA7
:100DE000DC0111963C932E932281338113963C9320
:100DF0002E931297B0E0A0E08A819B810097B1F515
:100E0000FE0181919191E80FF91F80910C01909161
:100E10000D018E179F0711F6109759F510920B01CF
:100E200010920A01D0930D01C0930C01B7CFB38388
:100E3000A28340815181240F351FA217B30771F49B
:100E40004E5F5F4F2D913C911197420F531F51837D
:100E5000408312962D913C9133832283009709F0B1
:100E6000ADCFF0930B01E0930A0198CFDE01EC01C6
:100E7000C3CF13961C921E921297D4CFF894FFCF33
:0A0E80000304050600000E01200027
:00000001FF
