:100000000C9434000C943E000C943E000C943E0082
:100010000C943E000C943E000C943E000C943E0068
:100020000C943E000C943E000C943E000C943E0058
:100030000C943E000C943E000C943E000C943E0048
:100040000C943E000C943E000C943E000C943E0038
:100050000C943E000C943E000C943E000C943E0028
:100060000C943E000C943E0011241FBECFEFD8E04C
:10007000DEBFCDBF0E9463000C94A1000C94000071
:10008000CF93DF9300D000D0CDB7DEB79A838983BA
:100090007C836B8381E090E09C010B8002C0220F87
:1000A000331F0A94E2F789819A818223932321E006
:1000B000892B09F420E0822F0F900F900F900F9062
:1000C000DF91CF910895CF93DF93CDB7DEB784E270
:1000D00090E0FC01108284E290E0FC01208184E247
:1000E00090E02062FC01208385E290E0FC01108218
:1000F00085E290E0FC01208185E290E02061FC0136
:10010000208383E290E0FC018081882F90E064E00E
:1001100070E00E944000882351F085E290E0FC01ED
:10012000208185E290E02F7DFC012083EACF85E2EB
:1001300090E0FC01208185E290E02062FC012083B8
:06014000E0CFF894FFCFB0
:00000001FF
