:100000000C9434000C9446000C9446000C9446006A
:100010000C9446000C9446000C9446000C94460048
:100020000C9446000C9446000C9446000C94460038
:100030000C9446000C9446000C9446000C94460028
:100040000C9446000C9446000C9446000C94460018
:100050000C9446000C9446000C9446000C94460008
:100060000C9446000C94460011241FBECFEFD8E03C
:10007000DEBFCDBF21E0A0E0B1E001C01D92A23003
:10008000B207E1F70E9448000C94B3000C94000002
:10009000CF93DF930F92CDB7DEB784E290E0FC01FF
:1000A000208184E290E02062FC0120830E94920083
:1000B0000E94750089838981883651F485E290E039
:1000C000FC01208185E290E02062FC012083F0CFDA
:1000D00089818C3669F785E290E0FC01208185E218
:1000E00090E02F7DFC012083E3CFCF93DF93CDB74A
:1000F000DEB7000080EC90E0FC0180818823D4F71B
:1001000086EC90E0FC018081DF91CF910895CF9340
:10011000DF930F92CDB7DEB7898300000F90DF9198
:10012000CF910895CF93DF93CDB7DEB790910101C2
:1001300081E08927882399F085EC90E0FC0110820A
:1001400084EC90E027E6FC01208381EC90E028E13C
:10015000FC01208382EC90E026E0FC01208300007B
:0A016000DF91CF910895F894FFCFCE
:00000001FF
