:100000000C9434000C9451000C9451000C94510049
:100010000C9451000C9451000C9451000C9451001C
:100020000C9451000C9451000C9451000C9451000C
:100030000C9451000C9451000C9451000C945100FC
:100040000C9451000C9451000C9451000C945100EC
:100050000C9451000C9451000C9451000C945100DC
:100060000C9451000C94510011241FBECFEFD8E026
:10007000DEBFCDBF11E0A0E0B1E0ECEEF9E002C0E0
:1000800005900D92AA30B107D9F721E0AAE0B1E0BE
:1000900001C01D92AE30B207E1F70E9453000C94EC
:1000A000F4040C940000CF93DF9300D000D0CDB7C0
:1000B000DEB783E00E9479009C838B83198208C09D
:1000C0008B819C8169810E94F90089818F5F89837E
:1000D00089818430A8F31A8208C08B819C816A814F
:1000E0000E94C4018A818F5F8A838A818430A8F349
:1000F000E5CFCF93DF9300D00F92CDB7DEB78B83E0
:1001000085E090E00E94CC039A8389838B818430C0
:1001100038F089819A810E9462041A82198205C08E
:1001200089819A816B810E949D0089819A810F90BB
:100130000F900F90DF91CF910895CF93DF9300D070
:1001400000D00F92CDB7DEB79C838B836D838B81FC
:100150009C812D81FC012083198214C08981282F64
:1001600030E08981882F90E020503F4FF901408195
:100170002B813C81820F931F0196FC014083898172
:100180008F5F89838981843048F31A8225C08AE28F
:1001900090E0FC018081482F8A81882F90E02B819C
:1001A0003C81820F931F0196FC018081282F30E053
:1001B00081E090E002C0880F991F2A95E2F7242F72
:1001C000282B8AE290E0FC0120838AE290E0FC0187
:1001D00020838A818F5F8A838A818430C0F2000005
:1001E00000000F900F900F900F900F90DF91CF9124
:1001F0000895CF93DF93CDB7DEB7A5970FB6F894E8
:10020000DEBF0FBECDBF988B8F87698B8989843005
:1002100008F0B0C08BE290E0DC018C91482F898916
:10022000882F90E02F853889820F931F0196FC015B
:100230008081282F30E081E090E002C0880F991F74
:100240002A95E2F7242F282B8BE290E0DC012C93F7
:100250008BE290E0FC01208380E090E0AAE7B4E428
:1002600089839A83AB83BC8320E030E04AE755E47E
:1002700069817A818B819C810E9437036E8B7F8B91
:10028000888F998F8E899F89A88DB98D8D839E8344
:10029000AF83B88720E030E040E85FE36D817E8186
:1002A0008F8198850E94B10288232CF481E090E030
:1002B0009A87898754C020E03FEF4FE757E46D816C
:1002C0007E818F8198850E9432031816D4F520E034
:1002D00030E040E251E469817A818B819C810E9407
:1002E00037036A8F7B8F8C8F9D8F8A8D9B8DAC8D12
:1002F000BD8D8A8B9B8BAC8BBD8B6A897B898C89EE
:100300009D890E94B6026E8F7F8F88A399A3AE8DC0
:10031000BF8DBA87A98710C080E991E09C878B8741
:100320008B859C850197F1F79C878B8700008985D9
:100330009A8501979A87898789859A85892B61F79C
:100340001AC06D817E818F8198850E94B6026AA352
:100350007BA38CA39DA3EAA1FBA1FA87E9878985EA
:100360009A859E878D878D859E850197F1F79E875B
:100370008D8701C00000A5960FB6F894DEBF0FBEB2
:10038000CDBFDF91CF910895CF93DF93CDB7DEB787
:10039000A5970FB6F894DEBF0FBECDBF988B8F87A1
:1003A000698B8989843008F0B1C08BE290E0DC0170
:1003B0008C91482F8989882F90E02F853889820F6A
:1003C000931F0196FC018081282F30E081E090E0AE
:1003D00002C0880F991F2A95E2F78095242F2823C1
:1003E0008BE290E0DC012C938BE290E0FC01208317
:1003F00080E090E0AAE7B4E489839A83AB83BC836E
:1004000020E030E04AE755E469817A818B819C8164
:100410000E9437036E8B7F8B888F998F8E899F897F
:10042000A88DB98D8D839E83AF83B88720E030E09F
:1004300040E85FE36D817E818F8198850E94B102E3
:1004400088232CF481E090E09A87898754C020E0CB
:100450003FEF4FE757E46D817E818F8198850E9441
:1004600032031816D4F520E030E040E251E469810F
:100470007A818B819C810E9437036A8F7B8F8C8F5E
:100480009D8F8A8D9B8DAC8DBD8D8A8B9B8BAC8B0C
:10049000BD8B6A897B898C899D890E94B6026E8F8B
:1004A0007F8F88A399A3AE8DBF8DBA87A98710C00F
:1004B00080E991E09C878B878B859C850197F1F77C
:1004C0009C878B87000089859A8501979A87898701
:1004D00089859A85892B61F71AC06D817E818F810C
:1004E00098850E94B6026AA37BA38CA39DA3EAA170
:1004F000FBA1FA87E98789859A859E878D878D85F7
:100500009E850197F1F79E878D8701C00000A59613
:100510000FB6F894DEBF0FBECDBFDF91CF91089527
:10052000CF93DF9300D0CDB7DEB79A8389838981DB
:100530009A81FC0180810F900F90DF91CF910895F7
:10054000CF93DF9300D0CDB7DEB79A8389838981BB
:100550009A810E94620400000F900F90DF91CF916A
:1005600008950E94E50208F481E008950E941103B5
:1005700088F09F5798F0B92F9927B751B0F0E1F064
:10058000660F771F881F991F1AF0BA95C9F714C014
:10059000B13091F00E942B03B1E008950C942B032D
:1005A000672F782F8827B85F39F0B93FCCF386954D
:1005B00077956795B395D9F73EF4909580957095AA
:1005C00061957F4F8F4F9F4F0895990F0008550FEA
:1005D000AA0BE0E8FEEF16161706E807F907C0F0C9
:1005E00012161306E407F50798F0621B730B840BD1
:1005F000950B39F40A2661F0232B242B252B21F4AB
:1006000008950A2609F4A140A6958FEF811D811D4A
:10061000089557FD9058440F551F59F05F3F71F0F2
:100620004795880F97FB991F61F09F3F79F0879559
:100630000895121613061406551FF2CF4695F1DFE2
:1006400008C0161617061806991FF1CF8695710572
:10065000610508940895E894BB2766277727CB01A6
:1006600097F908950E94E50208F48FEF08950E941B
:100670004A030C94BB030E94AD0338F00E94B403FC
:1006800020F0952311F00C94A4030C94AA031124D8
:100690000C942C030E94090370F3959FC1F3950FEE
:1006A00050E0551F629FF001729FBB27F00DB11DF6
:1006B000639FAA27F00DB11DAA1F649F6627B00D86
:1006C000A11D661F829F2227B00DA11D621F739F6F
:1006D000B00DA11D621F839FA00D611D221F749F7D
:1006E0003327A00D611D231F849F600D211D822FC4
:1006F000762F6A2F11249F5750409AF0F1F08823EB
:100700004AF0EE0FFF1FBB1F661F771F881F915017
:100710005040A9F79E3F510580F00C94A4030C941F
:100720002C035F3FE4F3983ED4F386957795679565
:10073000B795F795E7959F5FC1F7FE2B880F911D41
:100740009695879597F9089597F99F6780E870E0E7
:1007500060E008959FEF80EC089500240A94161637
:10076000170618060906089500240A94121613069F
:10077000140605060895092E0394000C11F488232D
:1007800052F0BB0F40F4BF2B11F460FF04C06F5F49
:100790007F4F8F4F9F4F08950F931F93CF93DF93FA
:1007A0009C01029710F422E030E0E0910A01F09100
:1007B0000B0190E080E0B0E0A0E0309791F400976A
:1007C00009F445C0821B930B84309105B8F58A81EA
:1007D0009B816115710569F1FB0193838283FE01A1
:1007E00011C0408151810281138142175307F0F0FB
:1007F0004217530799F4109761F012960C931297D1
:1008000013961C933296CF01DF91CF911F910F91D8
:10081000089500930A0110930B01F4CF009719F08B
:100820004817590718F4CA01BD01EF01DF01F801AB
:10083000C4CF90930B0180930A01D1CFFE01E80F42
:10084000F91F21933193029799838883DCCF80919C
:100850000C0190910D01892B41F48091060190913A
:10086000070190930D0180930C01809104019091F8
:100870000501009741F48DB79EB740910801509152
:100880000901841B950B40910C0150910D014817F3
:10089000590708F0B8CF841B950B8217930708F40B
:1008A000B2CFB9016E5F7F4F8617970708F4ABCFC1
:1008B000640F751F70930D0160930C01FA01219371
:1008C0003193A1CFCF93DF939C010097E9F0FC0116
:1008D000329713821282C0910A01D0910B01DE017E
:1008E00090E080E02097A1F480819181280F391F4A
:1008F00080910C0190910D018217930709F067C058
:10090000F0930D01E0930C01DF91CF910895DA018E
:10091000AE17BF0708F041C012964D915C91139736
:10092000CD014115510599F7DC011396FC93EE9327
:1009300012974D915D91A40FB51FEA17FB0781F443
:10094000208131812E5F3F4F240F351FDC0111962E
:100950003C932E932281338113963C932E931297CE
:10096000B0E0A0E08A819B810097B1F5FE01819102
:100970009191E80FF91F80910C0190910D018E1754
:100980009F0711F6109759F510920B0110920A016A
:10099000D0930D01C0930C01B7CFB383A2834081E4
:1009A0005181240F351FA217B30771F44E5F5F4FBB
:1009B0002D913C911197420F531F51834083129602
:1009C0002D913C9133832283009709F0ADCFF093B2
:1009D0000B01E0930A0198CFDE01EC01C3CF13961F
:0C09E0001C921E921297D4CFF894FFCF07
:0A09EC000304050600000E012000C0
:00000001FF
