:100000000C9434000C9446000C9446000C9446006A
:100010000C9446000C9446000C9446000C94460048
:100020000C9446000C9446000C9446000C94460038
:100030000C9446000C9446000C9448000C94460026
:100040000C9446000C9446000C9446000C94460018
:100050000C9446000C9446000C9446000C94460008
:100060000C9446000C94460011241FBECFEFD8E03C
:10007000DEBFCDBF21E0A0E0B1E001C01D92A23003
:10008000B207E1F70E9485000C94B4000C940000C4
:100090001F920F920FB60F9211242F933F938F93BD
:1000A0009F93EF93FF93CF93DF93CDB7DEB7F89491
:1000B0008091000190910101049690930101809339
:1000C00000018091000190910101843F914071F401
:1000D00085E290E0FC01308185E290E020E2232778
:1000E000FC0120831092010110920001789400001D
:1000F000DF91CF91FF91EF919F918F913F912F9140
:100100000F900FBE0F901F901895CF93DF93CDB730
:10011000DEB784E290E0FC01208184E290E020627E
:10012000FC01208384E490E0FC01208184E490E0E1
:100130002260FC01208385E490E0FC01208185E4BD
:1001400090E02460FC0120838EE690E0FC01208199
:100150008EE690E02260FC01208387E490E02AEFA5
:0C016000FC0120837894FFCFF894FFCFBF
:00000001FF
