:100000000C9434000C9446000C9446000C9446006A
:100010000C9446000C9446000C9446000C94460048
:100020000C9446000C9446000C9446000C94460038
:100030000C9446000C9446000C9446000C94460028
:100040000C9446000C9446000C94B8000C944600A6
:100050000C9446000C9446000C9446000C94460008
:100060000C9446000C94460011241FBECFEFD8E03C
:10007000DEBFCDBF21E0A0E0B1E001C01D92A23003
:10008000B207E1F70E9448000C94D9000C940000DC
:10009000CF93DF930F92CDB7DEB784E290E0FC01FF
:1000A000208184E290E02062FC012083F8940E9489
:1000B0008B0078940E94770089838981813351F481
:1000C00085E290E0FC01208185E290E02062FC0165
:1000D0002083F0CF8981803369F785E290E0FC01CD
:1000E000208185E290E02F7DFC012083E3CFCF9338
:1000F000DF93CDB7DEB780910001DF91CF910895F6
:10010000CF93DF930F92CDB7DEB7898300000F90B6
:10011000DF91CF910895CF93DF93CDB7DEB7909164
:10012000010181E089278823F9F085EC90E0FC014A
:10013000108284EC90E027E6FC01208381EC90E0C3
:1001400028E1FC01208381EC90E0FC01208181EC1E
:1001500090E02068FC01208382EC90E026E0FC0126
:10016000208381E0809301010000DF91CF91089509
:100170001F920F920FB60F9211248F939F93EF93BC
:10018000FF93CF93DF93CDB7DEB7F89486EC90E082
:10019000FC0180818093000178940000DF91CF9171
:1001A000FF91EF919F918F910F900FBE0F901F9035
:0601B0001895F894FFCF42
:00000001FF
