:100000000C9434000C9440000C943E000C943E0080
:100010000C943E000C943E000C943E000C943E0068
:100020000C943E000C943E000C943E000C943E0058
:100030000C943E000C943E000C943E000C943E0048
:100040000C943E000C943E000C943E000C943E0038
:100050000C943E000C943E000C943E000C943E0028
:100060000C943E000C943E0011241FBECFEFD8E04C
:10007000DEBFCDBF0E9466000C9448020C940000C5
:100080001F920F920FB60F9211242F938F939F936D
:10009000EF93FF93CF93DF93CDB7DEB7F89485E26C
:1000A00090E0FC01208185E290E02F7DFC0120831F
:1000B00078940000DF91CF91FF91EF919F918F9104
:1000C0002F910F900FBE0F901F901895CF93DF9335
:1000D000CDB7DEB7A2970FB6F894DEBF0FBECDBF87
:1000E0008BE290E0DC012C918BE290E02460FC013B
:1000F000208384E290E0DC012C9184E290E0206295
:10010000FC0120838DE390E0DC012C918DE390E0F5
:100110002160FC01208389E690E0DC012C9189E6D6
:1001200090E02160FC012083789485E290E0DC017E
:100130002C9185E290E02062FC01208380E090E435
:10014000ACE9B5E489839A83AB83BC8320E030E0DB
:100150004AE755E469817A818B819C810E94B301D1
:100160006B8B7C8B8D8B9E8B8B899C89AD89BE899B
:100170008D839E83AF83B88720E030E040E85FE363
:100180006D817E818F8198850E942D0188232CF4BA
:1001900081E090E09A87898754C020E03FEF4FE7E5
:1001A00057E46D817E818F8198850E94AE0118167B
:1001B000D4F520E030E040E251E469817A818B811E
:1001C0009C810E94B3016F8B788F898F9A8F8F8962
:1001D000988DA98DBA8D8F87988BA98BBA8B6F85D7
:1001E000788989899A890E9432016B8F7C8F8D8FE3
:1001F0009E8FAB8DBC8DBA87A98710C080E991E036
:100200009C878B878B859C850197F1F79C878B87D3
:10021000000089859A8501979A87898789859A85BB
:10022000892B61F719C06D817E818F8198850E942D
:1002300032016F8F78A389A39AA3EF8DF8A1FA8773
:10024000E98789859A859E878D878D859E8501970B
:10025000F1F79E878D87000068CF0E94610108F446
:1002600081E008950E948D0188F09F5798F0B92F82
:100270009927B751B0F0E1F0660F771F881F991FDB
:100280001AF0BA95C9F714C0B13091F00E94A701D5
:10029000B1E008950C94A701672F782F8827B85FE5
:1002A00039F0B93FCCF3869577956795B395D9F733
:1002B0003EF490958095709561957F4F8F4F9F4F3D
:1002C0000895990F0008550FAA0BE0E8FEEF1616E7
:1002D0001706E807F907C0F012161306E407F5073A
:1002E00098F0621B730B840B950B39F40A2661F0AE
:1002F000232B242B252B21F408950A2609F4A14051
:10030000A6958FEF811D811D089557FD9058440FCC
:10031000551F59F05F3F71F04795880F97FB991F64
:1003200061F09F3F79F08795089512161306140621
:10033000551FF2CF4695F1DF08C0161617061806AE
:10034000991FF1CF86957105610508940895E89489
:10035000BB2766277727CB0197F908950E94610193
:1003600008F48FEF08950E94C6010C9437020E9492
:10037000290238F00E94300220F0952311F00C94ED
:1003800020020C94260211240C94A8010E948501DD
:1003900070F3959FC1F3950F50E0551F629FF001D8
:1003A000729FBB27F00DB11D639FAA27F00DB11DF1
:1003B000AA1F649F6627B00DA11D661F829F22277A
:1003C000B00DA11D621F739FB00DA11D621F839F01
:1003D000A00D611D221F749F3327A00D611D231FD7
:1003E000849F600D211D822F762F6A2F11249F5725
:1003F00050409AF0F1F088234AF0EE0FFF1FBB1F28
:10040000661F771F881F91505040A9F79E3F5105E6
:1004100080F00C9420020C94A8015F3FE4F3983E16
:10042000D4F3869577956795B795F795E7959F5F90
:10043000C1F7FE2B880F911D9695879597F9089522
:1004400097F99F6780E870E060E008959FEF80EC87
:10045000089500240A94161617061806090608952A
:1004600000240A9412161306140605060895092E90
:100470000394000C11F4882352F0BB0F40F4BF2BFF
:1004800011F460FF04C06F5F7F4F8F4F9F4F08953F
:04049000F894FFCF0E
:00000001FF
